{
  "_format": "hh-sol-artifact-1",
  "contractName": "SlothyVaultFactory",
  "sourceName": "contracts/SlothyVaultFactory.sol",
  "abi": [
    {
      "inputs": [],
      "stateMutability": "nonpayable",
      "type": "constructor"
    },
    {
      "anonymous": false,
      "inputs": [
        {
          "indexed": true,
          "internalType": "address",
          "name": "previousOwner",
          "type": "address"
        },
        {
          "indexed": true,
          "internalType": "address",
          "name": "newOwner",
          "type": "address"
        }
      ],
      "name": "OwnershipTransferred",
      "type": "event"
    },
    {
      "inputs": [
        {
          "internalType": "bytes32",
          "name": "_arg",
          "type": "bytes32"
        }
      ],
      "name": "argToAddress",
      "outputs": [
        {
          "internalType": "address",
          "name": "_address",
          "type": "address"
        }
      ],
      "stateMutability": "pure",
      "type": "function"
    },
    {
      "inputs": [
        {
          "internalType": "bytes32",
          "name": "_arg",
          "type": "bytes32"
        }
      ],
      "name": "argToUint256",
      "outputs": [
        {
          "internalType": "uint256",
          "name": "_uint256",
          "type": "uint256"
        }
      ],
      "stateMutability": "pure",
      "type": "function"
    },
    {
      "inputs": [],
      "name": "deprecated",
      "outputs": [
        {
          "internalType": "bool",
          "name": "",
          "type": "bool"
        }
      ],
      "stateMutability": "view",
      "type": "function"
    },
    {
      "inputs": [
        {
          "internalType": "address",
          "name": "_startingToken",
          "type": "address"
        },
        {
          "internalType": "uint256",
          "name": "_startingTokenAmount",
          "type": "uint256"
        },
        {
          "internalType": "address[]",
          "name": "_supportedTokens",
          "type": "address[]"
        },
        {
          "components": [
            {
              "internalType": "address",
              "name": "token",
              "type": "address"
            },
            {
              "internalType": "address",
              "name": "spender",
              "type": "address"
            }
          ],
          "internalType": "struct SlothyHelpers.Approval[]",
          "name": "_approvals",
          "type": "tuple[]"
        },
        {
          "components": [
            {
              "internalType": "address",
              "name": "target",
              "type": "address"
            },
            {
              "internalType": "bytes32[]",
              "name": "data",
              "type": "bytes32[]"
            }
          ],
          "internalType": "struct SlothyHelpers.Action[]",
          "name": "_beforeLoop",
          "type": "tuple[]"
        },
        {
          "components": [
            {
              "internalType": "address",
              "name": "target",
              "type": "address"
            },
            {
              "internalType": "bytes32[]",
              "name": "data",
              "type": "bytes32[]"
            }
          ],
          "internalType": "struct SlothyHelpers.Action[]",
          "name": "_loop",
          "type": "tuple[]"
        },
        {
          "internalType": "uint256",
          "name": "_waitTime",
          "type": "uint256"
        }
      ],
      "name": "newVault",
      "outputs": [],
      "stateMutability": "nonpayable",
      "type": "function"
    },
    {
      "inputs": [],
      "name": "owner",
      "outputs": [
        {
          "internalType": "address",
          "name": "",
          "type": "address"
        }
      ],
      "stateMutability": "view",
      "type": "function"
    },
    {
      "inputs": [],
      "name": "renounceOwnership",
      "outputs": [],
      "stateMutability": "nonpayable",
      "type": "function"
    },
    {
      "inputs": [
        {
          "internalType": "address",
          "name": "newOwner",
          "type": "address"
        }
      ],
      "name": "transferOwnership",
      "outputs": [],
      "stateMutability": "nonpayable",
      "type": "function"
    },
    {
      "inputs": [
        {
          "internalType": "address",
          "name": "",
          "type": "address"
        }
      ],
      "name": "userToVault",
      "outputs": [
        {
          "internalType": "address",
          "name": "",
          "type": "address"
        }
      ],
      "stateMutability": "view",
      "type": "function"
    }
  ],
  "bytecode": "0x608060405234801561001057600080fd5b5061001a3361002c565b6000805460ff60a01b1916905561007c565b600080546001600160a01b038381166001600160a01b0319831681178455604051919092169283917f8be0079c531659141344cd1fd0a4f28419497f9722a3daafe3b4186f6b6457e09190a35050565b611f3e8061008b6000396000f3fe60806040523480156200001157600080fd5b5060043610620000935760003560e01c8063955f052b1162000062578063955f052b146200011c578063a4023b06146200013f578063bc721a961462000150578063f2fde38b146200017c57600080fd5b80630e136b19146200009857806335837ea314620000d3578063715018a614620000ec5780638da5cb5b14620000f6575b600080fd5b600054620000be9074010000000000000000000000000000000000000000900460ff1681565b60405190151581526020015b60405180910390f35b620000ea620000e43660046200071b565b62000193565b005b620000ea62000293565b6000546001600160a01b03165b6040516001600160a01b039091168152602001620000ca565b620001306200012d366004620007fb565b90565b604051908152602001620000ca565b620001036200012d366004620007fb565b620001036200016136600462000815565b6001602052600090815260409020546001600160a01b031681565b620000ea6200018d36600462000815565b620002ab565b336000908152600160205260409020546001600160a01b0316156200020b5760405162461bcd60e51b815260206004820152602360248201527f5661756c7420666f722074686973207573657220616c726561647920657869736044820152623a399760e91b60648201526084015b60405180910390fd5b868686868686866040516200022090620003fa565b62000232979695949392919062000930565b604051809103906000f0801580156200024f573d6000803e3d6000fd5b50336000908152600160205260409020805473ffffffffffffffffffffffffffffffffffffffff19166001600160a01b039290921691909117905550505050505050565b6200029d62000341565b620002a960006200039d565b565b620002b562000341565b6001600160a01b038116620003335760405162461bcd60e51b815260206004820152602660248201527f4f776e61626c653a206e6577206f776e657220697320746865207a65726f206160448201527f6464726573730000000000000000000000000000000000000000000000000000606482015260840162000202565b6200033e816200039d565b50565b6000546001600160a01b03163314620002a95760405162461bcd60e51b815260206004820181905260248201527f4f776e61626c653a2063616c6c6572206973206e6f7420746865206f776e6572604482015260640162000202565b600080546001600160a01b0383811673ffffffffffffffffffffffffffffffffffffffff19831681178455604051919092169283917f8be0079c531659141344cd1fd0a4f28419497f9722a3daafe3b4186f6b6457e09190a35050565b61155180620009e183390190565b80356001600160a01b03811681146200042057600080fd5b919050565b634e487b7160e01b600052604160045260246000fd5b6040805190810167ffffffffffffffff8111828210171562000461576200046162000425565b60405290565b604051601f8201601f1916810167ffffffffffffffff8111828210171562000493576200049362000425565b604052919050565b600067ffffffffffffffff821115620004b857620004b862000425565b5060051b60200190565b600082601f830112620004d457600080fd5b81356020620004ed620004e7836200049b565b62000467565b82815260059290921b840181019181810190868411156200050d57600080fd5b8286015b848110156200053357620005258162000408565b835291830191830162000511565b509695505050505050565b600082601f8301126200055057600080fd5b8135602062000563620004e7836200049b565b82815260069290921b840181019181810190868411156200058357600080fd5b8286015b84811015620005335760408189031215620005a25760008081fd5b620005ac6200043b565b620005b78262000408565b8152620005c685830162000408565b8186015283529183019160400162000587565b600082601f830112620005eb57600080fd5b81356020620005fe620004e7836200049b565b828152600592831b85018201928282019190878511156200061e57600080fd5b8387015b858110156200070e57803567ffffffffffffffff80821115620006455760008081fd5b908901906040828c03601f1901811315620006605760008081fd5b6200066a6200043b565b6200067789850162000408565b815281840135838111156200068c5760008081fd5b8085019450508c603f850112620006a557600092508283fd5b888401359250620006ba620004e7846200049b565b83815292861b8401820192898101908e851115620006d85760008081fd5b948301945b84861015620006f85785358252948a0194908a0190620006dd565b828b015250875250505092840192840162000622565b5090979650505050505050565b600080600080600080600060e0888a0312156200073757600080fd5b620007428862000408565b965060208801359550604088013567ffffffffffffffff808211156200076757600080fd5b620007758b838c01620004c2565b965060608a01359150808211156200078c57600080fd5b6200079a8b838c016200053e565b955060808a0135915080821115620007b157600080fd5b620007bf8b838c01620005d9565b945060a08a0135915080821115620007d657600080fd5b50620007e58a828b01620005d9565b92505060c0880135905092959891949750929550565b6000602082840312156200080e57600080fd5b5035919050565b6000602082840312156200082857600080fd5b620008338262000408565b9392505050565b600081518084526020808501945080840160005b838110156200088457815180516001600160a01b039081168952908401511683880152604090960195908201906001016200084e565b509495945050505050565b600081518084526020808501808196508360051b810191508286016000805b8681101562000922578385038a52825180516001600160a01b031686528601516040878701819052815190870181905290870190606087019084905b808210156200090c5783518352928901929189019160019190910190620008ea565b50509a87019a95505091850191600101620008ae565b509298975050505050505050565b600060e082016001600160a01b03808b16845260208a8186015260e06040860152828a5180855261010087019150828c01945060005b818110156200098657855185168352948301949183019160010162000966565b505085810360608701526200099c818b6200083a565b93505050508281036080840152620009b581876200088f565b905082810360a0840152620009cb81866200088f565b9150508260c08301529897505050505050505056fe60806040523480156200001157600080fd5b5060405162001551380380620015518339810160408190526200003491620006d0565b6200003f33620002b2565b600180546001600160a01b0319166001600160a01b038916179055600286905584516200007490600390602088019062000302565b5060005b84518110156200016357848181518110620000975762000097620007b0565b6020026020010151600001516001600160a01b031663095ea7b3868381518110620000c657620000c6620007b0565b6020026020010151602001516000196040518363ffffffff1660e01b8152600401620001079291906001600160a01b03929092168252602082015260400190565b6020604051808303816000875af115801562000127573d6000803e3d6000fd5b505050506040513d601f19601f820116820180604052508101906200014d9190620007c6565b50806200015a81620007f1565b91505062000078565b5060005b835181101562000200576004848281518110620001885762000188620007b0565b602090810291909101810151825460018082018555600094855293839020825160029092020180546001600160a01b0319166001600160a01b0390921691909117815581830151805192949193620001e793928501929101906200036c565b5050508080620001f790620007f1565b91505062000167565b5060005b82518110156200029d576005838281518110620002255762000225620007b0565b602090810291909101810151825460018082018555600094855293839020825160029092020180546001600160a01b0319166001600160a01b03909216919091178155818301518051929491936200028493928501929101906200036c565b50505080806200029490620007f1565b91505062000204565b50600655505042600755506200081992505050565b600080546001600160a01b038381166001600160a01b0319831681178455604051919092169283917f8be0079c531659141344cd1fd0a4f28419497f9722a3daafe3b4186f6b6457e09190a35050565b8280548282559060005260206000209081019282156200035a579160200282015b828111156200035a57825182546001600160a01b0319166001600160a01b0390911617825560209092019160019091019062000323565b5062000368929150620003aa565b5090565b8280548282559060005260206000209081019282156200035a579160200282015b828111156200035a5782518255916020019190600101906200038d565b5b80821115620003685760008155600101620003ab565b80516001600160a01b0381168114620003d957600080fd5b919050565b634e487b7160e01b600052604160045260246000fd5b604080519081016001600160401b0381118282101715620004195762000419620003de565b60405290565b604051601f8201601f191681016001600160401b03811182821017156200044a576200044a620003de565b604052919050565b60006001600160401b038211156200046e576200046e620003de565b5060051b60200190565b600082601f8301126200048a57600080fd5b81516020620004a36200049d8362000452565b6200041f565b82815260059290921b84018101918181019086841115620004c357600080fd5b8286015b84811015620004e957620004db81620003c1565b8352918301918301620004c7565b509695505050505050565b600082601f8301126200050657600080fd5b81516020620005196200049d8362000452565b82815260069290921b840181019181810190868411156200053957600080fd5b8286015b84811015620004e95760408189031215620005585760008081fd5b62000562620003f4565b6200056d82620003c1565b81526200057c858301620003c1565b818601528352918301916040016200053d565b600082601f830112620005a157600080fd5b81516020620005b46200049d8362000452565b828152600592831b8501820192828201919087851115620005d457600080fd5b8387015b85811015620006c35780516001600160401b0380821115620005fa5760008081fd5b908901906040828c03601f1901811315620006155760008081fd5b6200061f620003f4565b6200062c898501620003c1565b81528184015183811115620006415760008081fd5b8085019450508c603f8501126200065a57600092508283fd5b8884015192506200066f6200049d8462000452565b83815292861b8401820192898101908e8511156200068d5760008081fd5b948301945b84861015620006ad5785518252948a0194908a019062000692565b828b0152508752505050928401928401620005d8565b5090979650505050505050565b600080600080600080600060e0888a031215620006ec57600080fd5b620006f788620003c1565b602089015160408a015191985096506001600160401b03808211156200071c57600080fd5b6200072a8b838c0162000478565b965060608a01519150808211156200074157600080fd5b6200074f8b838c01620004f4565b955060808a01519150808211156200076657600080fd5b620007748b838c016200058f565b945060a08a01519150808211156200078b57600080fd5b506200079a8a828b016200058f565b92505060c0880151905092959891949750929550565b634e487b7160e01b600052603260045260246000fd5b600060208284031215620007d957600080fd5b81518015158114620007ea57600080fd5b9392505050565b6000600182016200081257634e487b7160e01b600052601160045260246000fd5b5060010190565b610d2880620008296000396000f3fe608060405234801561001057600080fd5b50600436106101515760003560e01c80636ba18f92116100cd578063a4023b0611610081578063ccca123b11610066578063ccca123b14610270578063e0a39c8514610279578063f2fde38b1461028c57600080fd5b8063a4023b061461024f578063c62556261461025d57600080fd5b806384acc4fe116100b257806384acc4fe1461021a5780638da5cb5b1461022d578063955f052b1461023e57600080fd5b80636ba18f9214610209578063715018a61461021257600080fd5b80630b7d796e1161012457806325609bee1161010957806325609bee146101e657806329c68dc1146101ee5780636b792c4b146101f657600080fd5b80630b7d796e146101bc5780631e912b47146101cf57600080fd5b806302fb0c5e1461015657806303b6543d1461017f57806307da68f5146101aa5780630a9254e4146101b4575b600080fd5b60005461016a90600160a01b900460ff1681565b60405190151581526020015b60405180910390f35b600154610192906001600160a01b031681565b6040516001600160a01b039091168152602001610176565b6101b261029f565b005b6101b2610418565b6101926101ca366004610b0a565b6105e5565b6101d860025481565b604051908152602001610176565b6101b2610614565b6101b26107ae565b6101b2610204366004610b0a565b6107d7565b6101d860075481565b6101b2610810565b610192610228366004610b0a565b610824565b6000546001600160a01b0316610192565b6101d861024c366004610b0a565b90565b61019261024c366004610b0a565b61019261026b366004610b0a565b610834565b6101d860065481565b6101b2610287366004610b55565b61085e565b6101b261029a366004610c1a565b6109bb565b6102a7610a48565b6000805460ff60a01b191681555b60035481101561041557600381815481106102d2576102d2610c3c565b600091825260209091200154600380546001600160a01b039092169163a9059cbb9133918590811061030657610306610c3c565b6000918252602090912001546040516370a0823160e01b81523060048201526001600160a01b03909116906370a0823190602401602060405180830381865afa158015610357573d6000803e3d6000fd5b505050506040513d601f19601f8201168201806040525081019061037b9190610c52565b6040517fffffffff0000000000000000000000000000000000000000000000000000000060e085901b1681526001600160a01b03909216600483015260248201526044016020604051808303816000875af11580156103de573d6000803e3d6000fd5b505050506040513d601f19601f820116820180604052508101906104029190610c6b565b508061040d81610ca3565b9150506102b5565b50565b600054600160a01b900460ff16156104775760405162461bcd60e51b815260206004820152600e60248201527f416c72656164792073657420757000000000000000000000000000000000000060448201526064015b60405180910390fd5b6000805460ff60a01b1916600160a01b1790556001546002546040516323b872dd60e01b815233600482015230602482015260448101919091526001600160a01b03909116906323b872dd906064016020604051808303816000875af11580156104e5573d6000803e3d6000fd5b505050506040513d601f19601f820116820180604052508101906105099190610c6b565b5060005b600454811015610415576004818154811061052a5761052a610c3c565b6000918252602090912060029091020154600480546001600160a01b03909216916399f7973291908490811061056257610562610c3c565b90600052602060002090600202016001016040518263ffffffff1660e01b815260040161058f9190610cbc565b6020604051808303816000875af11580156105ae573d6000803e3d6000fd5b505050506040513d601f19601f820116820180604052508101906105d29190610c6b565b50806105dd81610ca3565b91505061050d565b600581815481106105f557600080fd5b60009182526020909120600290910201546001600160a01b0316905081565b600054600160a01b900460ff1661066d5760405162461bcd60e51b815260206004820152601360248201527f5661756c74206973206e6f742061637469766500000000000000000000000000604482015260640161046e565b60065460075461067d9190610d03565b4210156106cc5760405162461bcd60e51b815260206004820152601360248201527f43616e6e6f742072756e206c6f6f702079657400000000000000000000000000604482015260640161046e565b60005b6005548110156107a757600581815481106106ec576106ec610c3c565b6000918252602090912060029091020154600580546001600160a01b03909216916399f7973291908490811061072457610724610c3c565b90600052602060002090600202016001016040518263ffffffff1660e01b81526004016107519190610cbc565b6020604051808303816000875af1158015610770573d6000803e3d6000fd5b505050506040513d601f19601f820116820180604052508101906107949190610c6b565b508061079f81610ca3565b9150506106cf565b5042600755565b6107b6610a48565b6000805460ff60a01b198116600160a01b9182900460ff1615909102179055565b6107df610a48565b604051339082156108fc029083906000818181858888f1935050505015801561080c573d6000803e3d6000fd5b5050565b610818610a48565b6108226000610aa2565b565b600481815481106105f557600080fd5b6003818154811061084457600080fd5b6000918252602090912001546001600160a01b0316905081565b610866610a48565b60005b815181101561080c5781818151811061088457610884610c3c565b60200260200101516001600160a01b031663a9059cbb338484815181106108ad576108ad610c3c565b60209081029190910101516040516370a0823160e01b81523060048201526001600160a01b03909116906370a0823190602401602060405180830381865afa1580156108fd573d6000803e3d6000fd5b505050506040513d601f19601f820116820180604052508101906109219190610c52565b6040517fffffffff0000000000000000000000000000000000000000000000000000000060e085901b1681526001600160a01b03909216600483015260248201526044016020604051808303816000875af1158015610984573d6000803e3d6000fd5b505050506040513d601f19601f820116820180604052508101906109a89190610c6b565b50806109b381610ca3565b915050610869565b6109c3610a48565b6001600160a01b038116610a3f5760405162461bcd60e51b815260206004820152602660248201527f4f776e61626c653a206e6577206f776e657220697320746865207a65726f206160448201527f6464726573730000000000000000000000000000000000000000000000000000606482015260840161046e565b61041581610aa2565b6000546001600160a01b031633146108225760405162461bcd60e51b815260206004820181905260248201527f4f776e61626c653a2063616c6c6572206973206e6f7420746865206f776e6572604482015260640161046e565b600080546001600160a01b038381167fffffffffffffffffffffffff0000000000000000000000000000000000000000831681178455604051919092169283917f8be0079c531659141344cd1fd0a4f28419497f9722a3daafe3b4186f6b6457e09190a35050565b600060208284031215610b1c57600080fd5b5035919050565b634e487b7160e01b600052604160045260246000fd5b80356001600160a01b0381168114610b5057600080fd5b919050565b60006020808385031215610b6857600080fd5b823567ffffffffffffffff80821115610b8057600080fd5b818501915085601f830112610b9457600080fd5b813581811115610ba657610ba6610b23565b8060051b604051601f19603f83011681018181108582111715610bcb57610bcb610b23565b604052918252848201925083810185019188831115610be957600080fd5b938501935b82851015610c0e57610bff85610b39565b84529385019392850192610bee565b98975050505050505050565b600060208284031215610c2c57600080fd5b610c3582610b39565b9392505050565b634e487b7160e01b600052603260045260246000fd5b600060208284031215610c6457600080fd5b5051919050565b600060208284031215610c7d57600080fd5b81518015158114610c3557600080fd5b634e487b7160e01b600052601160045260246000fd5b600060018201610cb557610cb5610c8d565b5060010190565b6020808252825482820181905260008481528281209092916040850190845b81811015610cf757835483526001938401939285019201610cdb565b50909695505050505050565b60008219821115610d1657610d16610c8d565b50019056fea164736f6c634300080f000aa164736f6c634300080f000a",
  "linkReferences": {},
  "deployedLinkReferences": {}
}